{"abi":[{"type":"constructor","inputs":[{"name":"_minimumThreshold","type":"uint256","internalType":"uint256"}],"stateMutability":"nonpayable"},{"type":"receive","stateMutability":"payable"},{"type":"function","name":"DEFAULT_ADMIN_ROLE","inputs":[],"outputs":[{"name":"","type":"bytes32","internalType":"bytes32"}],"stateMutability":"view"},{"type":"function","name":"EMERGENCY_COOLDOWN","inputs":[],"outputs":[{"name":"","type":"uint256","internalType":"uint256"}],"stateMutability":"view"},{"type":"function","name":"MAX_EMERGENCY_LEVEL","inputs":[],"outputs":[{"name":"","type":"uint256","internalType":"uint256"}],"stateMutability":"view"},{"type":"function","name":"RISK_MANAGER_ROLE","inputs":[],"outputs":[{"name":"","type":"bytes32","internalType":"bytes32"}],"stateMutability":"view"},{"type":"function","name":"dailyWithdrawals","inputs":[{"name":"","type":"uint256","internalType":"uint256"}],"outputs":[{"name":"","type":"uint256","internalType":"uint256"}],"stateMutability":"view"},{"type":"function","name":"fundReserve","inputs":[],"outputs":[],"stateMutability":"payable"},{"type":"function","name":"getCurrentDayWithdrawals","inputs":[],"outputs":[{"name":"","type":"uint256","internalType":"uint256"}],"stateMutability":"view"},{"type":"function","name":"getReserveStatus","inputs":[],"outputs":[{"name":"totalReserves","type":"uint256","internalType":"uint256"},{"name":"minimumThreshold","type":"uint256","internalType":"uint256"},{"name":"emergencyMode","type":"bool","internalType":"bool"},{"name":"emergencyLevel","type":"uint256","internalType":"uint256"},{"name":"nextWithdrawalAllowed","type":"uint256","internalType":"uint256"},{"name":"totalWithdrawals","type":"uint256","internalType":"uint256"}],"stateMutability":"view"},{"type":"function","name":"getRoleAdmin","inputs":[{"name":"role","type":"bytes32","internalType":"bytes32"}],"outputs":[{"name":"","type":"bytes32","internalType":"bytes32"}],"stateMutability":"view"},{"type":"function","name":"grantRole","inputs":[{"name":"role","type":"bytes32","internalType":"bytes32"},{"name":"account","type":"address","internalType":"address"}],"outputs":[],"stateMutability":"nonpayable"},{"type":"function","name":"hasRole","inputs":[{"name":"role","type":"bytes32","internalType":"bytes32"},{"name":"account","type":"address","internalType":"address"}],"outputs":[{"name":"","type":"bool","internalType":"bool"}],"stateMutability":"view"},{"type":"function","name":"lastActionTime","inputs":[{"name":"","type":"address","internalType":"address"}],"outputs":[{"name":"","type":"uint256","internalType":"uint256"}],"stateMutability":"view"},{"type":"function","name":"pause","inputs":[],"outputs":[],"stateMutability":"nonpayable"},{"type":"function","name":"paused","inputs":[],"outputs":[{"name":"","type":"bool","internalType":"bool"}],"stateMutability":"view"},{"type":"function","name":"pool","inputs":[],"outputs":[{"name":"totalReserves","type":"uint256","internalType":"uint256"},{"name":"minimumThreshold","type":"uint256","internalType":"uint256"},{"name":"lastWithdrawalTime","type":"uint256","internalType":"uint256"},{"name":"emergencyMode","type":"bool","internalType":"bool"},{"name":"emergencyLevel","type":"uint256","internalType":"uint256"},{"name":"totalWithdrawals","type":"uint256","internalType":"uint256"}],"stateMutability":"view"},{"type":"function","name":"renounceRole","inputs":[{"name":"role","type":"bytes32","internalType":"bytes32"},{"name":"callerConfirmation","type":"address","internalType":"address"}],"outputs":[],"stateMutability":"nonpayable"},{"type":"function","name":"revokeRole","inputs":[{"name":"role","type":"bytes32","internalType":"bytes32"},{"name":"account","type":"address","internalType":"address"}],"outputs":[],"stateMutability":"nonpayable"},{"type":"function","name":"setEmergencyMode","inputs":[{"name":"status","type":"bool","internalType":"bool"},{"name":"level","type":"uint256","internalType":"uint256"}],"outputs":[],"stateMutability":"nonpayable"},{"type":"function","name":"setMinimumThreshold","inputs":[{"name":"newThreshold","type":"uint256","internalType":"uint256"}],"outputs":[],"stateMutability":"nonpayable"},{"type":"function","name":"setWithdrawalLimits","inputs":[{"name":"_maxAmount","type":"uint256","internalType":"uint256"},{"name":"_dailyLimit","type":"uint256","internalType":"uint256"},{"name":"_cooldownPeriod","type":"uint256","internalType":"uint256"}],"outputs":[],"stateMutability":"nonpayable"},{"type":"function","name":"supportsInterface","inputs":[{"name":"interfaceId","type":"bytes4","internalType":"bytes4"}],"outputs":[{"name":"","type":"bool","internalType":"bool"}],"stateMutability":"view"},{"type":"function","name":"unpause","inputs":[],"outputs":[],"stateMutability":"nonpayable"},{"type":"function","name":"withdrawEmergencyFunds","inputs":[{"name":"recipient","type":"address","internalType":"address payable"},{"name":"amount","type":"uint256","internalType":"uint256"},{"name":"reason","type":"string","internalType":"string"}],"outputs":[],"stateMutability":"nonpayable"},{"type":"function","name":"withdrawalLimit","inputs":[],"outputs":[{"name":"maxAmount","type":"uint256","internalType":"uint256"},{"name":"dailyLimit","type":"uint256","internalType":"uint256"},{"name":"cooldownPeriod","type":"uint256","internalType":"uint256"}],"stateMutability":"view"},{"type":"event","name":"EmergencyModeUpdated","inputs":[{"name":"status","type":"bool","indexed":false,"internalType":"bool"},{"name":"emergencyLevel","type":"uint256","indexed":false,"internalType":"uint256"},{"name":"timestamp","type":"uint256","indexed":false,"internalType":"uint256"}],"anonymous":false},{"type":"event","name":"EmergencyWithdrawal","inputs":[{"name":"amount","type":"uint256","indexed":false,"internalType":"uint256"},{"name":"reason","type":"string","indexed":false,"internalType":"string"},{"name":"emergencyLevel","type":"uint256","indexed":false,"internalType":"uint256"}],"anonymous":false},{"type":"event","name":"Paused","inputs":[{"name":"account","type":"address","indexed":false,"internalType":"address"}],"anonymous":false},{"type":"event","name":"RateLimitExceeded","inputs":[{"name":"actor","type":"address","indexed":true,"internalType":"address"},{"name":"action","type":"string","indexed":false,"internalType":"string"},{"name":"timestamp","type":"uint256","indexed":false,"internalType":"uint256"}],"anonymous":false},{"type":"event","name":"ReserveFunded","inputs":[{"name":"amount","type":"uint256","indexed":false,"internalType":"uint256"},{"name":"timestamp","type":"uint256","indexed":false,"internalType":"uint256"}],"anonymous":false},{"type":"event","name":"RoleAdminChanged","inputs":[{"name":"role","type":"bytes32","indexed":true,"internalType":"bytes32"},{"name":"previousAdminRole","type":"bytes32","indexed":true,"internalType":"bytes32"},{"name":"newAdminRole","type":"bytes32","indexed":true,"internalType":"bytes32"}],"anonymous":false},{"type":"event","name":"RoleGranted","inputs":[{"name":"role","type":"bytes32","indexed":true,"internalType":"bytes32"},{"name":"account","type":"address","indexed":true,"internalType":"address"},{"name":"sender","type":"address","indexed":true,"internalType":"address"}],"anonymous":false},{"type":"event","name":"RoleRevoked","inputs":[{"name":"role","type":"bytes32","indexed":true,"internalType":"bytes32"},{"name":"account","type":"address","indexed":true,"internalType":"address"},{"name":"sender","type":"address","indexed":true,"internalType":"address"}],"anonymous":false},{"type":"event","name":"Unpaused","inputs":[{"name":"account","type":"address","indexed":false,"internalType":"address"}],"anonymous":false},{"type":"event","name":"WithdrawalLimitsUpdated","inputs":[{"name":"maxAmount","type":"uint256","indexed":false,"internalType":"uint256"},{"name":"dailyLimit","type":"uint256","indexed":false,"internalType":"uint256"},{"name":"cooldownPeriod","type":"uint256","indexed":false,"internalType":"uint256"}],"anonymous":false},{"type":"error","name":"AccessControlBadConfirmation","inputs":[]},{"type":"error","name":"AccessControlUnauthorizedAccount","inputs":[{"name":"account","type":"address","internalType":"address"},{"name":"neededRole","type":"bytes32","internalType":"bytes32"}]},{"type":"error","name":"EnforcedPause","inputs":[]},{"type":"error","name":"ExpectedPause","inputs":[]},{"type":"error","name":"ReentrancyGuardReentrantCall","inputs":[]}],"bytecode":{"object":"0x608060405234801562000010575f80fd5b50604051620015cd380380620015cd8339810160408190526200003391620001b5565b60015f9081556002805460ff191690556200004f903362000121565b506200007c7fb2e3ee861706f0756afea8a5257301f83561f9ac10b8f43b771dc928566f8c613362000121565b506040805160c0810182525f8082526020820184905281830181905260608083018290526080830182905260a09092018190526003819055600484815560058290556006805460ff1916905560078290556008919091558251918201909252908190620000ea9084620001cd565b8152602001620000fc600284620001cd565b8152620151806020918201528151600955810151600a5560400151600b5550620001ed565b5f8281526001602090815260408083206001600160a01b038516845290915281205460ff16620001ac575f8381526001602081815260408084206001600160a01b0387168086529252808420805460ff19169093179092559051339286917f2f8788117e7eff1d82e926ec794901d17c78024a50270940304540a733656f0d9190a4506001620001af565b505f5b92915050565b5f60208284031215620001c6575f80fd5b5051919050565b5f82620001e857634e487b7160e01b5f52601260045260245ffd5b500490565b6113d280620001fb5f395ff3fe60806040526004361061014a575f3560e01c80636f9c3c8f116100b357806394e842941161006d57806394e8429414610454578063a217fddf14610473578063a760280c14610486578063b4f1094d146104b9578063d547741f146104cf578063fd0fbaf6146104ee575f80fd5b80636f9c3c8f146103ad57806378d7dbeb146103b55780637ddfe78d146103d45780638456cb591461040d5780638a6692981461042157806391d1485414610435575f80fd5b806336568abe1161010457806336568abe146102e957806339772d67146103085780633f4ba83a1461031c578063564ed5ee146103305780635c975abb1461037757806367058d291461038e575f80fd5b806301ffc9a7146101a557806316f0115b146101d9578063248a9ca31461023557806327f0bfd6146102725780632f2ff15d1461029d57806333770245146102be575f80fd5b366101a1573460035f015f82825461016291906110f3565b9091555050604080513481524260208201527f36eeecd4650f8bd0f141b85d46c9279f125af40121719b96ff294e2bcd7abac6910160405180910390a1005b5f80fd5b3480156101b0575f80fd5b506101c46101bf366004611106565b61050d565b60405190151581526020015b60405180910390f35b3480156101e4575f80fd5b506003546004546005546006546007546008546102069594939260ff16919086565b6040805196875260208701959095529385019290925215156060840152608083015260a082015260c0016101d0565b348015610240575f80fd5b5061026461024f366004611134565b5f908152600160208190526040909120015490565b6040519081526020016101d0565b34801561027d575f80fd5b5061026461028c36600461115f565b600d6020525f908152604090205481565b3480156102a8575f80fd5b506102bc6102b736600461117a565b610543565b005b3480156102c9575f80fd5b506102646102d8366004611134565b600c6020525f908152604090205481565b3480156102f4575f80fd5b506102bc61030336600461117a565b61056e565b348015610313575f80fd5b50610264600381565b348015610327575f80fd5b506102bc6105a6565b34801561033b575f80fd5b506103446105bb565b604080519687526020870195909552921515938501939093526060840152608083019190915260a082015260c0016101d0565b348015610382575f80fd5b5060025460ff166101c4565b348015610399575f80fd5b506102bc6103a8366004611134565b6105ff565b6102bc6106a4565b3480156103c0575f80fd5b506102bc6103cf3660046111a8565b610750565b3480156103df575f80fd5b50600954600a54600b546103f292919083565b604080519384526020840192909252908201526060016101d0565b348015610418575f80fd5b506102bc61096f565b34801561042c575f80fd5b50610264610981565b348015610440575f80fd5b506101c461044f36600461117a565b6109a5565b34801561045f575f80fd5b506102bc61046e3660046111ea565b6109cf565b34801561047e575f80fd5b506102645f81565b348015610491575f80fd5b506102647fb2e3ee861706f0756afea8a5257301f83561f9ac10b8f43b771dc928566f8c6181565b3480156104c4575f80fd5b5061026462093a8081565b3480156104da575f80fd5b506102bc6104e936600461117a565b610d44565b3480156104f9575f80fd5b506102bc6105083660046112b0565b610d69565b5f6001600160e01b03198216637965db0b60e01b148061053d57506301ffc9a760e01b6001600160e01b03198316145b92915050565b5f828152600160208190526040909120015461055e81610eb9565b6105688383610ec3565b50505050565b6001600160a01b03811633146105975760405163334bd91960e11b815260040160405180910390fd5b6105a18282610f39565b505050565b5f6105b081610eb9565b6105b8610fa4565b50565b600354600454600654600754600b546005545f958695869586958695869560ff909316926105e991906110f3565b600854949b939a50919850965094509092509050565b5f61060981610eb9565b335f908152600d602052604090205461062490610e106110f3565b42101561064c5760405162461bcd60e51b8152600401610643906112d9565b60405180910390fd5b335f908152600d602052604090204290558161069e5760405162461bcd60e51b8152602060048201526011602482015270125b9d985b1a59081d1a1c995cda1bdb19607a1b6044820152606401610643565b50600455565b6106ac610ff6565b6106b461101e565b5f34116106f55760405162461bcd60e51b815260206004820152600f60248201526e4d7573742073656e642066756e647360881b6044820152606401610643565b3460035f015f82825461070891906110f3565b9091555050604080513481524260208201527f36eeecd4650f8bd0f141b85d46c9279f125af40121719b96ff294e2bcd7abac6910160405180910390a161074e60015f55565b565b7fb2e3ee861706f0756afea8a5257301f83561f9ac10b8f43b771dc928566f8c6161077a81610eb9565b60038211156107cb5760405162461bcd60e51b815260206004820152601760248201527f496e76616c696420656d657267656e6379206c6576656c0000000000000000006044820152606401610643565b826108735760065460ff1661081a5760405162461bcd60e51b81526020600482015260156024820152744e6f7420696e20656d657267656e6379206d6f646560581b6044820152606401610643565b600454600354101561086e5760405162461bcd60e51b815260206004820181905260248201527f52657365727665732062656c6f77206d696e696d756d207468726573686f6c646044820152606401610643565b6108c6565b60065460ff16156108c65760405162461bcd60e51b815260206004820152601960248201527f416c726561647920696e20656d657267656e6379206d6f6465000000000000006044820152606401610643565b335f908152600d602052604090205442906108e390610e106110f3565b11156109015760405162461bcd60e51b8152600401610643906112d9565b335f908152600d602090815260409182902042908190556006805487151560ff199091168117909155600786905583519081529182018590528183015290517f5091d43f43088689f7161a50fa8b0d31edf8045b4390bfe6bdf85fcb8f785a899181900360600190a1505050565b5f61097981610eb9565b6105b8611042565b5f600c816109926201518042611310565b81526020019081526020015f2054905090565b5f9182526001602090815260408084206001600160a01b0393909316845291905290205460ff1690565b7fb2e3ee861706f0756afea8a5257301f83561f9ac10b8f43b771dc928566f8c616109f981610eb9565b60065460ff16610a435760405162461bcd60e51b81526020600482015260156024820152744e6f7420696e20656d657267656e6379206d6f646560581b6044820152606401610643565b600b54600554610a5391906110f3565b421015610aa25760405162461bcd60e51b815260206004820152601b60248201527f436f6f6c646f776e20706572696f64206e6f7420656c617073656400000000006044820152606401610643565b600954831115610aed5760405162461bcd60e51b8152602060048201526016602482015275416d6f756e742065786365656473206d6178696d756d60501b6044820152606401610643565b6003545f90610afd90859061132f565b600454909150811015610b645760405162461bcd60e51b815260206004820152602960248201527f5769746864726177616c20776f756c6420627265616368206d696e696d756d206044820152681d1a1c995cda1bdb1960ba1b6064820152608401610643565b5f610b726201518042611310565b600a545f828152600c602052604090205491925090610b929087906110f3565b1115610be05760405162461bcd60e51b815260206004820152601f60248201527f4461696c79207769746864726177616c206c696d6974206578636565646564006044820152606401610643565b335f908152600d60205260409020544290610bfd90610e106110f3565b1115610c1b5760405162461bcd60e51b8152600401610643906112d9565b335f908152600d60205260408120429055600383905560088054879290610c439084906110f3565b9091555050426005555f818152600c602052604081208054879290610c699084906110f3565b90915550506040515f906001600160a01b0388169087908381818185875af1925050503d805f8114610cb6576040519150601f19603f3d011682016040523d82523d5f602084013e610cbb565b606091505b5050905080610cfe5760405162461bcd60e51b815260206004820152600f60248201526e151c985b9cd9995c8819985a5b1959608a1b6044820152606401610643565b6007546040517f344289d0fc438dd3ebfb17e86f57989398d0b40a72a99a28602fa23659c546c291610d339189918991611342565b60405180910390a150505050505050565b5f8281526001602081905260409091200154610d5f81610eb9565b6105688383610f39565b5f610d7381610eb9565b5f8411610db75760405162461bcd60e51b8152602060048201526012602482015271125b9d985b1a59081b585e08185b5bdd5b9d60721b6044820152606401610643565b83831015610dfd5760405162461bcd60e51b81526020600482015260136024820152724461696c79206c696d697420746f6f206c6f7760681b6044820152606401610643565b5f8211610e4c5760405162461bcd60e51b815260206004820152601760248201527f496e76616c696420636f6f6c646f776e20706572696f640000000000000000006044820152606401610643565b604080516060808201835286825260208083018790529183018590526009879055600a869055600b85905582518781529182018690529181018490527fab88a17bff2f1e5b7b6ffcff3503a14293f34e117ae53aa6d1cd250dfe7bdf38910160405180910390a150505050565b6105b8813361107f565b5f610ece83836109a5565b610f32575f8381526001602081815260408084206001600160a01b0387168086529252808420805460ff19169093179092559051339286917f2f8788117e7eff1d82e926ec794901d17c78024a50270940304540a733656f0d9190a450600161053d565b505f61053d565b5f610f4483836109a5565b15610f32575f8381526001602090815260408083206001600160a01b0386168085529252808320805460ff1916905551339286917ff6391f5c32d9c69d2a47ea670b442974b53935d1edc7fd64eb21e047a839171b9190a450600161053d565b610fac6110bc565b6002805460ff191690557f5db9ee0a495bf2e6ff9c91a7834c1ba4fdd244a5e8aa4e537bd38aeae4b073aa335b6040516001600160a01b03909116815260200160405180910390a1565b60025f540361101857604051633ee5aeb560e01b815260040160405180910390fd5b60025f55565b60025460ff161561074e5760405163d93c066560e01b815260040160405180910390fd5b61104a61101e565b6002805460ff191660011790557f62e78cea01bee320cd4e420270b5ea74000d11b0c9f74754ebdbfc544b05a258610fd93390565b61108982826109a5565b6110b85760405163e2517d3f60e01b81526001600160a01b038216600482015260248101839052604401610643565b5050565b60025460ff1661074e57604051638dfc202b60e01b815260040160405180910390fd5b634e487b7160e01b5f52601160045260245ffd5b8082018082111561053d5761053d6110df565b5f60208284031215611116575f80fd5b81356001600160e01b03198116811461112d575f80fd5b9392505050565b5f60208284031215611144575f80fd5b5035919050565b6001600160a01b03811681146105b8575f80fd5b5f6020828403121561116f575f80fd5b813561112d8161114b565b5f806040838503121561118b575f80fd5b82359150602083013561119d8161114b565b809150509250929050565b5f80604083850312156111b9575f80fd5b823580151581146111c8575f80fd5b946020939093013593505050565b634e487b7160e01b5f52604160045260245ffd5b5f805f606084860312156111fc575f80fd5b83356112078161114b565b925060208401359150604084013567ffffffffffffffff8082111561122a575f80fd5b818601915086601f83011261123d575f80fd5b81358181111561124f5761124f6111d6565b604051601f8201601f19908116603f01168101908382118183101715611277576112776111d6565b8160405282815289602084870101111561128f575f80fd5b826020860160208301375f6020848301015280955050505050509250925092565b5f805f606084860312156112c2575f80fd5b505081359360208301359350604090920135919050565b6020808252601c908201527f52617465206c696d69743a20546f6f206d616e7920616374696f6e7300000000604082015260600190565b5f8261132a57634e487b7160e01b5f52601260045260245ffd5b500490565b8181038181111561053d5761053d6110df565b8381525f602060608184015284518060608501525f5b8181101561137457868101830151858201608001528201611358565b505f608082860101526080601f19601f8301168501019250505082604083015294935050505056fea26469706673582212202b47b0090779e3b04d2ff4e3f5625a9f8994ff1448702fef96b64680685e933864736f6c63430008140033","linkReferences":{}},"methodIdentifiers":{"DEFAULT_ADMIN_ROLE()":"a217fddf","EMERGENCY_COOLDOWN()":"b4f1094d","MAX_EMERGENCY_LEVEL()":"39772d67","RISK_MANAGER_ROLE()":"a760280c","dailyWithdrawals(uint256)":"33770245","fundReserve()":"6f9c3c8f","getCurrentDayWithdrawals()":"8a669298","getReserveStatus()":"564ed5ee","getRoleAdmin(bytes32)":"248a9ca3","grantRole(bytes32,address)":"2f2ff15d","hasRole(bytes32,address)":"91d14854","lastActionTime(address)":"27f0bfd6","pause()":"8456cb59","paused()":"5c975abb","pool()":"16f0115b","renounceRole(bytes32,address)":"36568abe","revokeRole(bytes32,address)":"d547741f","setEmergencyMode(bool,uint256)":"78d7dbeb","setMinimumThreshold(uint256)":"67058d29","setWithdrawalLimits(uint256,uint256,uint256)":"fd0fbaf6","supportsInterface(bytes4)":"01ffc9a7","unpause()":"3f4ba83a","withdrawEmergencyFunds(address,uint256,string)":"94e84294","withdrawalLimit()":"7ddfe78d"},"id":1}