{"abi":[{"type":"constructor","inputs":[],"stateMutability":"nonpayable"},{"type":"function","name":"DEFAULT_ADMIN_ROLE","inputs":[],"outputs":[{"name":"","type":"bytes32","internalType":"bytes32"}],"stateMutability":"view"},{"type":"function","name":"ISSUER_ROLE","inputs":[],"outputs":[{"name":"","type":"bytes32","internalType":"bytes32"}],"stateMutability":"view"},{"type":"function","name":"RATE_DENOMINATOR","inputs":[],"outputs":[{"name":"","type":"uint256","internalType":"uint256"}],"stateMutability":"view"},{"type":"function","name":"TRANSFER_LOCKUP_PERIOD","inputs":[],"outputs":[{"name":"","type":"uint256","internalType":"uint256"}],"stateMutability":"view"},{"type":"function","name":"allowance","inputs":[{"name":"owner","type":"address","internalType":"address"},{"name":"spender","type":"address","internalType":"address"}],"outputs":[{"name":"","type":"uint256","internalType":"uint256"}],"stateMutability":"view"},{"type":"function","name":"approve","inputs":[{"name":"spender","type":"address","internalType":"address"},{"name":"value","type":"uint256","internalType":"uint256"}],"outputs":[{"name":"","type":"bool","internalType":"bool"}],"stateMutability":"nonpayable"},{"type":"function","name":"balanceOf","inputs":[{"name":"account","type":"address","internalType":"address"}],"outputs":[{"name":"","type":"uint256","internalType":"uint256"}],"stateMutability":"view"},{"type":"function","name":"bondHolders","inputs":[{"name":"","type":"address","internalType":"address"}],"outputs":[{"name":"issueDate","type":"uint256","internalType":"uint256"},{"name":"maturityDate","type":"uint256","internalType":"uint256"},{"name":"initialRate","type":"uint256","internalType":"uint256"},{"name":"stepDownRate","type":"uint256","internalType":"uint256"},{"name":"stepDownDate","type":"uint256","internalType":"uint256"},{"name":"maturityClaimed","type":"bool","internalType":"bool"}],"stateMutability":"view"},{"type":"function","name":"claimMaturity","inputs":[],"outputs":[],"stateMutability":"nonpayable"},{"type":"function","name":"decimals","inputs":[],"outputs":[{"name":"","type":"uint8","internalType":"uint8"}],"stateMutability":"view"},{"type":"function","name":"getCurrentRate","inputs":[{"name":"holder","type":"address","internalType":"address"}],"outputs":[{"name":"","type":"uint256","internalType":"uint256"}],"stateMutability":"view"},{"type":"function","name":"getRoleAdmin","inputs":[{"name":"role","type":"bytes32","internalType":"bytes32"}],"outputs":[{"name":"","type":"bytes32","internalType":"bytes32"}],"stateMutability":"view"},{"type":"function","name":"grantRole","inputs":[{"name":"role","type":"bytes32","internalType":"bytes32"},{"name":"account","type":"address","internalType":"address"}],"outputs":[],"stateMutability":"nonpayable"},{"type":"function","name":"hasRole","inputs":[{"name":"role","type":"bytes32","internalType":"bytes32"},{"name":"account","type":"address","internalType":"address"}],"outputs":[{"name":"","type":"bool","internalType":"bool"}],"stateMutability":"view"},{"type":"function","name":"issueBond","inputs":[{"name":"to","type":"address","internalType":"address"},{"name":"amount","type":"uint256","internalType":"uint256"}],"outputs":[],"stateMutability":"nonpayable"},{"type":"function","name":"name","inputs":[],"outputs":[{"name":"","type":"string","internalType":"string"}],"stateMutability":"view"},{"type":"function","name":"pause","inputs":[],"outputs":[],"stateMutability":"nonpayable"},{"type":"function","name":"paused","inputs":[],"outputs":[{"name":"","type":"bool","internalType":"bool"}],"stateMutability":"view"},{"type":"function","name":"payCoupon","inputs":[{"name":"holder","type":"address","internalType":"address"}],"outputs":[{"name":"","type":"uint256","internalType":"uint256"}],"stateMutability":"nonpayable"},{"type":"function","name":"redeem","inputs":[{"name":"holder","type":"address","internalType":"address"},{"name":"amount","type":"uint256","internalType":"uint256"},{"name":"reason","type":"string","internalType":"string"}],"outputs":[],"stateMutability":"nonpayable"},{"type":"function","name":"renounceRole","inputs":[{"name":"role","type":"bytes32","internalType":"bytes32"},{"name":"callerConfirmation","type":"address","internalType":"address"}],"outputs":[],"stateMutability":"nonpayable"},{"type":"function","name":"revokeRole","inputs":[{"name":"role","type":"bytes32","internalType":"bytes32"},{"name":"account","type":"address","internalType":"address"}],"outputs":[],"stateMutability":"nonpayable"},{"type":"function","name":"setTransferRestriction","inputs":[{"name":"holder","type":"address","internalType":"address"},{"name":"restricted","type":"bool","internalType":"bool"}],"outputs":[],"stateMutability":"nonpayable"},{"type":"function","name":"supportsInterface","inputs":[{"name":"interfaceId","type":"bytes4","internalType":"bytes4"}],"outputs":[{"name":"","type":"bool","internalType":"bool"}],"stateMutability":"view"},{"type":"function","name":"symbol","inputs":[],"outputs":[{"name":"","type":"string","internalType":"string"}],"stateMutability":"view"},{"type":"function","name":"totalBondsIssued","inputs":[],"outputs":[{"name":"","type":"uint256","internalType":"uint256"}],"stateMutability":"view"},{"type":"function","name":"totalSupply","inputs":[],"outputs":[{"name":"","type":"uint256","internalType":"uint256"}],"stateMutability":"view"},{"type":"function","name":"transfer","inputs":[{"name":"to","type":"address","internalType":"address"},{"name":"value","type":"uint256","internalType":"uint256"}],"outputs":[{"name":"","type":"bool","internalType":"bool"}],"stateMutability":"nonpayable"},{"type":"function","name":"transferFrom","inputs":[{"name":"from","type":"address","internalType":"address"},{"name":"to","type":"address","internalType":"address"},{"name":"value","type":"uint256","internalType":"uint256"}],"outputs":[{"name":"","type":"bool","internalType":"bool"}],"stateMutability":"nonpayable"},{"type":"function","name":"transferRestricted","inputs":[{"name":"","type":"address","internalType":"address"}],"outputs":[{"name":"","type":"bool","internalType":"bool"}],"stateMutability":"view"},{"type":"function","name":"unpause","inputs":[],"outputs":[],"stateMutability":"nonpayable"},{"type":"event","name":"Approval","inputs":[{"name":"owner","type":"address","indexed":true,"internalType":"address"},{"name":"spender","type":"address","indexed":true,"internalType":"address"},{"name":"value","type":"uint256","indexed":false,"internalType":"uint256"}],"anonymous":false},{"type":"event","name":"BondIssued","inputs":[{"name":"holder","type":"address","indexed":true,"internalType":"address"},{"name":"amount","type":"uint256","indexed":false,"internalType":"uint256"},{"name":"issueDate","type":"uint256","indexed":false,"internalType":"uint256"},{"name":"maturityDate","type":"uint256","indexed":false,"internalType":"uint256"}],"anonymous":false},{"type":"event","name":"BondMaturityClaimed","inputs":[{"name":"holder","type":"address","indexed":true,"internalType":"address"},{"name":"amount","type":"uint256","indexed":false,"internalType":"uint256"},{"name":"maturityDate","type":"uint256","indexed":false,"internalType":"uint256"}],"anonymous":false},{"type":"event","name":"BondRedeemed","inputs":[{"name":"holder","type":"address","indexed":true,"internalType":"address"},{"name":"amount","type":"uint256","indexed":false,"internalType":"uint256"},{"name":"reason","type":"string","indexed":false,"internalType":"string"}],"anonymous":false},{"type":"event","name":"CouponPaid","inputs":[{"name":"holder","type":"address","indexed":true,"internalType":"address"},{"name":"amount","type":"uint256","indexed":false,"internalType":"uint256"},{"name":"rate","type":"uint256","indexed":false,"internalType":"uint256"}],"anonymous":false},{"type":"event","name":"Paused","inputs":[{"name":"account","type":"address","indexed":false,"internalType":"address"}],"anonymous":false},{"type":"event","name":"RoleAdminChanged","inputs":[{"name":"role","type":"bytes32","indexed":true,"internalType":"bytes32"},{"name":"previousAdminRole","type":"bytes32","indexed":true,"internalType":"bytes32"},{"name":"newAdminRole","type":"bytes32","indexed":true,"internalType":"bytes32"}],"anonymous":false},{"type":"event","name":"RoleGranted","inputs":[{"name":"role","type":"bytes32","indexed":true,"internalType":"bytes32"},{"name":"account","type":"address","indexed":true,"internalType":"address"},{"name":"sender","type":"address","indexed":true,"internalType":"address"}],"anonymous":false},{"type":"event","name":"RoleRevoked","inputs":[{"name":"role","type":"bytes32","indexed":true,"internalType":"bytes32"},{"name":"account","type":"address","indexed":true,"internalType":"address"},{"name":"sender","type":"address","indexed":true,"internalType":"address"}],"anonymous":false},{"type":"event","name":"Transfer","inputs":[{"name":"from","type":"address","indexed":true,"internalType":"address"},{"name":"to","type":"address","indexed":true,"internalType":"address"},{"name":"value","type":"uint256","indexed":false,"internalType":"uint256"}],"anonymous":false},{"type":"event","name":"TransferRestrictionSet","inputs":[{"name":"holder","type":"address","indexed":true,"internalType":"address"},{"name":"restricted","type":"bool","indexed":false,"internalType":"bool"}],"anonymous":false},{"type":"event","name":"Unpaused","inputs":[{"name":"account","type":"address","indexed":false,"internalType":"address"}],"anonymous":false},{"type":"error","name":"AccessControlBadConfirmation","inputs":[]},{"type":"error","name":"AccessControlUnauthorizedAccount","inputs":[{"name":"account","type":"address","internalType":"address"},{"name":"neededRole","type":"bytes32","internalType":"bytes32"}]},{"type":"error","name":"ERC20InsufficientAllowance","inputs":[{"name":"spender","type":"address","internalType":"address"},{"name":"allowance","type":"uint256","internalType":"uint256"},{"name":"needed","type":"uint256","internalType":"uint256"}]},{"type":"error","name":"ERC20InsufficientBalance","inputs":[{"name":"sender","type":"address","internalType":"address"},{"name":"balance","type":"uint256","internalType":"uint256"},{"name":"needed","type":"uint256","internalType":"uint256"}]},{"type":"error","name":"ERC20InvalidApprover","inputs":[{"name":"approver","type":"address","internalType":"address"}]},{"type":"error","name":"ERC20InvalidReceiver","inputs":[{"name":"receiver","type":"address","internalType":"address"}]},{"type":"error","name":"ERC20InvalidSender","inputs":[{"name":"sender","type":"address","internalType":"address"}]},{"type":"error","name":"ERC20InvalidSpender","inputs":[{"name":"spender","type":"address","internalType":"address"}]},{"type":"error","name":"EnforcedPause","inputs":[]},{"type":"error","name":"ExpectedPause","inputs":[]}],"bytecode":{"object":"0x608060405234801562000010575f80fd5b506040518060400160405280600c81526020016b13585b9b88131a48109bdb9960a21b8152506040518060400160405280600381526020016226a62160e91b81525081600390816200006391906200020f565b5060046200007282826200020f565b50506005805460ff19169055506200008b5f33620000bf565b50620000b87f114e74f6ea3bd819998f78687bfcb11b140da08e9b7d222fa9c1f1ba1f2aa12233620000bf565b50620002d7565b5f8281526006602090815260408083206001600160a01b038516845290915281205460ff1662000166575f8381526006602090815260408083206001600160a01b03861684529091529020805460ff191660011790556200011d3390565b6001600160a01b0316826001600160a01b0316847f2f8788117e7eff1d82e926ec794901d17c78024a50270940304540a733656f0d60405160405180910390a450600162000169565b505f5b92915050565b634e487b7160e01b5f52604160045260245ffd5b600181811c908216806200019857607f821691505b602082108103620001b757634e487b7160e01b5f52602260045260245ffd5b50919050565b601f8211156200020a575f81815260208120601f850160051c81016020861015620001e55750805b601f850160051c820191505b818110156200020657828155600101620001f1565b5050505b505050565b81516001600160401b038111156200022b576200022b6200016f565b62000243816200023c845462000183565b84620001bd565b602080601f83116001811462000279575f8415620002615750858301515b5f19600386901b1c1916600185901b17855562000206565b5f85815260208120601f198616915b82811015620002a95788860151825594840194600190910190840162000288565b5085821015620002c757878501515f19600388901b60f8161c191681555b5050505050600190811b01905550565b6117b180620002e55f395ff3fe608060405234801561000f575f80fd5b50600436106101dc575f3560e01c806370a0823111610109578063a217fddf1161009e578063d547741f1161006e578063d547741f14610437578063dce77d841461044a578063dd62ed3e1461045d578063f44a849c14610495575f80fd5b8063a217fddf146103f7578063a38b2a34146103fe578063a9059cbb14610411578063b1cd221a14610424575f80fd5b8063901a37d9116100d9578063901a37d9146103bf57806391d14854146103d257806395d89b41146103e5578063a1fa9909146103ed575f80fd5b806370a08231146103725780637efad8e01461039a57806382aefa24146103a35780638456cb59146103b7575f80fd5b806323b872dd1161017f57806336568abe1161014f57806336568abe146103395780633f4ba83a1461034c5780635c975abb146103545780636b5a7fde1461035f575f80fd5b806323b872dd146102e2578063248a9ca3146102f55780632f2ff15d14610317578063313ce5671461032a575f80fd5b8063108c52a7116101ba578063108c52a71461023057806314a28d7a146102a457806318160ddd146102ae57806321bb271c146102c0575f80fd5b806301ffc9a7146101e057806306fdde0314610208578063095ea7b31461021d575b5f80fd5b6101f36101ee366004611467565b61049e565b60405190151581526020015b60405180910390f35b6102106104d4565b6040516101ff9190611495565b6101f361022b3660046114fb565b610564565b61027561023e366004611523565b60076020525f9081526040902080546001820154600283015460038401546004850154600590950154939492939192909160ff1686565b6040805196875260208701959095529385019290925260608401526080830152151560a082015260c0016101ff565b6102ac61057b565b005b6002545b6040519081526020016101ff565b6101f36102ce366004611523565b60086020525f908152604090205460ff1681565b6101f36102f036600461153c565b61071a565b6102b2610303366004611575565b5f9081526006602052604090206001015490565b6102ac61032536600461158c565b61073d565b604051601281526020016101ff565b6102ac61034736600461158c565b610767565b6102ac61079f565b60055460ff166101f3565b6102ac61036d3660046114fb565b6107b4565b6102b2610380366004611523565b6001600160a01b03165f9081526020819052604090205490565b6102b261271081565b6102b25f8051602061175c83398151915281565b6102ac610980565b6102b26103cd366004611523565b610992565b6101f36103e036600461158c565b610aa4565b610210610ace565b6102b262278d0081565b6102b25f81565b6102ac61040c3660046115b6565b610add565b6101f361041f3660046114fb565b610b53565b6102ac6104323660046115ef565b610b60565b6102ac61044536600461158c565b610c79565b6102b2610458366004611523565b610c9d565b6102b261046b36600461166f565b6001600160a01b039182165f90815260016020908152604080832093909416825291909152205490565b6102b260095481565b5f6001600160e01b03198216637965db0b60e01b14806104ce57506301ffc9a760e01b6001600160e01b03198316145b92915050565b6060600380546104e390611697565b80601f016020809104026020016040519081016040528092919081815260200182805461050f90611697565b801561055a5780601f106105315761010080835404028352916020019161055a565b820191905f5260205f20905b81548152906001019060200180831161053d57829003601f168201915b5050505050905090565b5f33610571818585610d39565b5060019392505050565b610583610d46565b335f90815260076020526040902080546105d45760405162461bcd60e51b815260206004820152600d60248201526c139bc8189bdb991cc81a195b19609a1b60448201526064015b60405180910390fd5b806001015442101561061b5760405162461bcd60e51b815260206004820152601060248201526f109bdb99081b9bdd081b585d1d5c995960821b60448201526064016105cb565b600581015460ff16156106705760405162461bcd60e51b815260206004820152601860248201527f4d6174757269747920616c726561647920636c61696d6564000000000000000060448201526064016105cb565b335f90815260208190526040902054806106c05760405162461bcd60e51b81526020600482015260116024820152704e6f20626f6e647320746f20636c61696d60781b60448201526064016105cb565b60058201805460ff1916600190811790915582015460405133917fa98469e9f9775c52df89d1c47897e32ad2a9647093430da8a715935c4762727f9161070e91858252602082015260400190565b60405180910390a25050565b5f33610727858285610d6c565b610732858585610de1565b506001949350505050565b5f8281526006602052604090206001015461075781610e3e565b6107618383610e48565b50505050565b6001600160a01b03811633146107905760405163334bd91960e11b815260040160405180910390fd5b61079a8282610ed9565b505050565b5f6107a981610e3e565b6107b1610f44565b50565b5f8051602061175c8339815191526107cb81610e3e565b6107d3610d46565b6001600160a01b03831661081b5760405162461bcd60e51b815260206004820152600f60248201526e496e76616c6964206164647265737360881b60448201526064016105cb565b5f821161085b5760405162461bcd60e51b815260206004820152600e60248201526d125b9d985b1a5908185b5bdd5b9d60921b60448201526064016105cb565b5f6040518060c00160405280428152602001426312cc030061087d91906116dd565b81526103e8602082015261030760408201526060016108a04263096601806116dd565b81525f60209182018190526001600160a01b0387168152600782526040808220845181559284015160018401558301516002830155606083015160038301556080830151600483015560a08301516005909201805460ff19169215159290921790915560098054929350859290919061091a9084906116dd565b9091555061092a90508484610f96565b6020808201516040805186815242938101939093528201526001600160a01b038516907f21ac30d1fe85a065f2e6a2b0547a1bcc669a8cbbc7635894fadca589eea3ca429060600160405180910390a250505050565b5f61098a81610e3e565b6107b1610fce565b5f5f8051602061175c8339815191526109aa81610e3e565b6109b2610d46565b6001600160a01b0383165f9081526020819052604081205411610a075760405162461bcd60e51b815260206004820152600d60248201526c139bc8189bdb991cc81a195b19609a1b60448201526064016105cb565b5f610a1184610c9d565b90505f61271082610a36876001600160a01b03165f9081526020819052604090205490565b610a4091906116f0565b610a4a9190611707565b9050610a568582610f96565b60408051828152602081018490526001600160a01b038716917f2b6bdaf5703b7660d288433bd5b9b5516285a695e3484740d9197d651a01a37c910160405180910390a29250505b50919050565b5f9182526006602090815260408084206001600160a01b0393909316845291905290205460ff1690565b6060600480546104e390611697565b5f8051602061175c833981519152610af481610e3e565b6001600160a01b0383165f81815260086020908152604091829020805460ff191686151590811790915591519182527f3fca418d052bd11bbc235e49c218af843549bf34d0be7d4e9f4ed03016ec930c910160405180910390a2505050565b5f33610571818585610de1565b5f8051602061175c833981519152610b7781610e3e565b610b7f610d46565b5f8411610bbf5760405162461bcd60e51b815260206004820152600e60248201526d125b9d985b1a5908185b5bdd5b9d60921b60448201526064016105cb565b83610bde866001600160a01b03165f9081526020819052604090205490565b1015610c235760405162461bcd60e51b8152602060048201526014602482015273496e73756666696369656e742062616c616e636560601b60448201526064016105cb565b610c2d858561100b565b846001600160a01b03167fcc6e7f5f219ba32625da6c51d2cecc4c66c4254fe7d2ce41b2ef5fcf97e57c56858585604051610c6a93929190611726565b60405180910390a25050505050565b5f82815260066020526040902060010154610c9381610e3e565b6107618383610ed9565b6001600160a01b0381165f908152600760209081526040808320815160c081018352815480825260018301549482019490945260028201549281019290925260038101546060830152600481015460808301526005015460ff16151560a0820152901580610d0c57508060a001515b15610d1957505f92915050565b8060800151421015610d2f576040015192915050565b6060015192915050565b61079a838383600161103f565b60055460ff1615610d6a5760405163d93c066560e01b815260040160405180910390fd5b565b6001600160a01b038381165f908152600160209081526040808320938616835292905220545f1981146107615781811015610dd357604051637dc7a0d960e11b81526001600160a01b038416600482015260248101829052604481018390526064016105cb565b61076184848484035f61103f565b6001600160a01b038316610e0a57604051634b637e8f60e11b81525f60048201526024016105cb565b6001600160a01b038216610e335760405163ec442f0560e01b81525f60048201526024016105cb565b61079a838383611111565b6107b181336112d7565b5f610e538383610aa4565b610ed2575f8381526006602090815260408083206001600160a01b03861684529091529020805460ff19166001179055610e8a3390565b6001600160a01b0316826001600160a01b0316847f2f8788117e7eff1d82e926ec794901d17c78024a50270940304540a733656f0d60405160405180910390a45060016104ce565b505f6104ce565b5f610ee48383610aa4565b15610ed2575f8381526006602090815260408083206001600160a01b0386168085529252808320805460ff1916905551339286917ff6391f5c32d9c69d2a47ea670b442974b53935d1edc7fd64eb21e047a839171b9190a45060016104ce565b610f4c611310565b6005805460ff191690557f5db9ee0a495bf2e6ff9c91a7834c1ba4fdd244a5e8aa4e537bd38aeae4b073aa335b6040516001600160a01b03909116815260200160405180910390a1565b6001600160a01b038216610fbf5760405163ec442f0560e01b81525f60048201526024016105cb565b610fca5f8383611111565b5050565b610fd6610d46565b6005805460ff191660011790557f62e78cea01bee320cd4e420270b5ea74000d11b0c9f74754ebdbfc544b05a258610f793390565b6001600160a01b03821661103457604051634b637e8f60e11b81525f60048201526024016105cb565b610fca825f83611111565b6001600160a01b0384166110685760405163e602df0560e01b81525f60048201526024016105cb565b6001600160a01b03831661109157604051634a1406b160e11b81525f60048201526024016105cb565b6001600160a01b038085165f908152600160209081526040808320938716835292905220829055801561076157826001600160a01b0316846001600160a01b03167f8c5be1e5ebec7d5bd14f71427d1e84f3dd0314c0f7b2291e5b200ac8c7c3b9258460405161110391815260200190565b60405180910390a350505050565b6001600160a01b0383161580159061113157506001600160a01b03821615155b156112cc576001600160a01b0383165f9081526008602052604090205460ff16156111955760405162461bcd60e51b815260206004820152601460248201527314d95b99195c881a5cc81c995cdd1c9a58dd195960621b60448201526064016105cb565b6001600160a01b0382165f9081526008602052604090205460ff16156111fd5760405162461bcd60e51b815260206004820152601760248201527f526563697069656e74206973207265737472696374656400000000000000000060448201526064016105cb565b6001600160a01b0383165f90815260076020908152604091829020825160c081018452815480825260018301549382019390935260028201549381019390935260038101546060840152600481015460808401526005015460ff16151560a083015261126d9062278d00906116dd565b4210156112ca5760405162461bcd60e51b815260206004820152602560248201527f5472616e73666572206c6f636b656420647572696e6720696e697469616c2070604482015264195c9a5bd960da1b60648201526084016105cb565b505b61079a838383611333565b6112e18282610aa4565b610fca5760405163e2517d3f60e01b81526001600160a01b0382166004820152602481018390526044016105cb565b60055460ff16610d6a57604051638dfc202b60e01b815260040160405180910390fd5b61133b610d46565b61079a8383836001600160a01b03831661136b578060025f82825461136091906116dd565b909155506113db9050565b6001600160a01b0383165f90815260208190526040902054818110156113bd5760405163391434e360e21b81526001600160a01b038516600482015260248101829052604481018390526064016105cb565b6001600160a01b0384165f9081526020819052604090209082900390555b6001600160a01b0382166113f757600280548290039055611415565b6001600160a01b0382165f9081526020819052604090208054820190555b816001600160a01b0316836001600160a01b03167fddf252ad1be2c89b69c2b068fc378daa952ba7f163c4a11628f55a4df523b3ef8360405161145a91815260200190565b60405180910390a3505050565b5f60208284031215611477575f80fd5b81356001600160e01b03198116811461148e575f80fd5b9392505050565b5f6020808352835180828501525f5b818110156114c0578581018301518582016040015282016114a4565b505f604082860101526040601f19601f8301168501019250505092915050565b80356001600160a01b03811681146114f6575f80fd5b919050565b5f806040838503121561150c575f80fd5b611515836114e0565b946020939093013593505050565b5f60208284031215611533575f80fd5b61148e826114e0565b5f805f6060848603121561154e575f80fd5b611557846114e0565b9250611565602085016114e0565b9150604084013590509250925092565b5f60208284031215611585575f80fd5b5035919050565b5f806040838503121561159d575f80fd5b823591506115ad602084016114e0565b90509250929050565b5f80604083850312156115c7575f80fd5b6115d0836114e0565b9150602083013580151581146115e4575f80fd5b809150509250929050565b5f805f8060608587031215611602575f80fd5b61160b856114e0565b935060208501359250604085013567ffffffffffffffff8082111561162e575f80fd5b818701915087601f830112611641575f80fd5b81358181111561164f575f80fd5b886020828501011115611660575f80fd5b95989497505060200194505050565b5f8060408385031215611680575f80fd5b611689836114e0565b91506115ad602084016114e0565b600181811c908216806116ab57607f821691505b602082108103610a9e57634e487b7160e01b5f52602260045260245ffd5b634e487b7160e01b5f52601160045260245ffd5b808201808211156104ce576104ce6116c9565b80820281158282048414176104ce576104ce6116c9565b5f8261172157634e487b7160e01b5f52601260045260245ffd5b500490565b83815260406020820152816040820152818360608301375f818301606090810191909152601f909201601f191601019291505056fe114e74f6ea3bd819998f78687bfcb11b140da08e9b7d222fa9c1f1ba1f2aa122a26469706673582212206ee51d644c6d5ea297c9a3c6783f61ffad0fe476cc2d194f74902a8dfd1e462964736f6c63430008140033","linkReferences":{}},"methodIdentifiers":{"DEFAULT_ADMIN_ROLE()":"a217fddf","ISSUER_ROLE()":"82aefa24","RATE_DENOMINATOR()":"7efad8e0","TRANSFER_LOCKUP_PERIOD()":"a1fa9909","allowance(address,address)":"dd62ed3e","approve(address,uint256)":"095ea7b3","balanceOf(address)":"70a08231","bondHolders(address)":"108c52a7","claimMaturity()":"14a28d7a","decimals()":"313ce567","getCurrentRate(address)":"dce77d84","getRoleAdmin(bytes32)":"248a9ca3","grantRole(bytes32,address)":"2f2ff15d","hasRole(bytes32,address)":"91d14854","issueBond(address,uint256)":"6b5a7fde","name()":"06fdde03","pause()":"8456cb59","paused()":"5c975abb","payCoupon(address)":"901a37d9","redeem(address,uint256,string)":"b1cd221a","renounceRole(bytes32,address)":"36568abe","revokeRole(bytes32,address)":"d547741f","setTransferRestriction(address,bool)":"a38b2a34","supportsInterface(bytes4)":"01ffc9a7","symbol()":"95d89b41","totalBondsIssued()":"f44a849c","totalSupply()":"18160ddd","transfer(address,uint256)":"a9059cbb","transferFrom(address,address,uint256)":"23b872dd","transferRestricted(address)":"21bb271c","unpause()":"3f4ba83a"},"id":0}