{"abi":[{"type":"constructor","inputs":[{"name":"_bondToken","type":"address","internalType":"address"}],"stateMutability":"nonpayable"},{"type":"receive","stateMutability":"payable"},{"type":"function","name":"DEFAULT_ADMIN_ROLE","inputs":[],"outputs":[{"name":"","type":"bytes32","internalType":"bytes32"}],"stateMutability":"view"},{"type":"function","name":"MANAGER_ROLE","inputs":[],"outputs":[{"name":"","type":"bytes32","internalType":"bytes32"}],"stateMutability":"view"},{"type":"function","name":"bondToken","inputs":[],"outputs":[{"name":"","type":"address","internalType":"contract MannLiBondToken"}],"stateMutability":"view"},{"type":"function","name":"buybackParams","inputs":[],"outputs":[{"name":"minimumAmount","type":"uint256","internalType":"uint256"},{"name":"maximumAmount","type":"uint256","internalType":"uint256"},{"name":"discountRate","type":"uint256","internalType":"uint256"},{"name":"cooldownPeriod","type":"uint256","internalType":"uint256"}],"stateMutability":"view"},{"type":"function","name":"calculateBuybackPrice","inputs":[{"name":"amount","type":"uint256","internalType":"uint256"}],"outputs":[{"name":"","type":"uint256","internalType":"uint256"}],"stateMutability":"view"},{"type":"function","name":"emergencyWithdraw","inputs":[],"outputs":[],"stateMutability":"nonpayable"},{"type":"function","name":"executeBuyback","inputs":[{"name":"holder","type":"address","internalType":"address"},{"name":"amount","type":"uint256","internalType":"uint256"}],"outputs":[],"stateMutability":"nonpayable"},{"type":"function","name":"executeReinvestment","inputs":[{"name":"_amount","type":"uint256","internalType":"uint256"}],"outputs":[],"stateMutability":"nonpayable"},{"type":"function","name":"getReinvestmentStats","inputs":[],"outputs":[{"name":"totalReinvested","type":"uint256","internalType":"uint256"},{"name":"totalBuybacks","type":"uint256","internalType":"uint256"},{"name":"currentFunds","type":"uint256","internalType":"uint256"},{"name":"reinvestmentRate","type":"uint256","internalType":"uint256"}],"stateMutability":"view"},{"type":"function","name":"getRoleAdmin","inputs":[{"name":"role","type":"bytes32","internalType":"bytes32"}],"outputs":[{"name":"","type":"bytes32","internalType":"bytes32"}],"stateMutability":"view"},{"type":"function","name":"grantRole","inputs":[{"name":"role","type":"bytes32","internalType":"bytes32"},{"name":"account","type":"address","internalType":"address"}],"outputs":[],"stateMutability":"nonpayable"},{"type":"function","name":"hasRole","inputs":[{"name":"role","type":"bytes32","internalType":"bytes32"},{"name":"account","type":"address","internalType":"address"}],"outputs":[{"name":"","type":"bool","internalType":"bool"}],"stateMutability":"view"},{"type":"function","name":"holderBuybacks","inputs":[{"name":"","type":"address","internalType":"address"}],"outputs":[{"name":"","type":"uint256","internalType":"uint256"}],"stateMutability":"view"},{"type":"function","name":"lastBuybackTime","inputs":[{"name":"","type":"address","internalType":"address"}],"outputs":[{"name":"","type":"uint256","internalType":"uint256"}],"stateMutability":"view"},{"type":"function","name":"paused","inputs":[],"outputs":[{"name":"","type":"bool","internalType":"bool"}],"stateMutability":"view"},{"type":"function","name":"pool","inputs":[],"outputs":[{"name":"totalFunds","type":"uint256","internalType":"uint256"},{"name":"reinvestmentRate","type":"uint256","internalType":"uint256"},{"name":"lastReinvestmentTime","type":"uint256","internalType":"uint256"},{"name":"totalReinvested","type":"uint256","internalType":"uint256"},{"name":"totalBuybacks","type":"uint256","internalType":"uint256"}],"stateMutability":"view"},{"type":"function","name":"reinvestYield","inputs":[],"outputs":[],"stateMutability":"nonpayable"},{"type":"function","name":"renounceRole","inputs":[{"name":"role","type":"bytes32","internalType":"bytes32"},{"name":"callerConfirmation","type":"address","internalType":"address"}],"outputs":[],"stateMutability":"nonpayable"},{"type":"function","name":"revokeRole","inputs":[{"name":"role","type":"bytes32","internalType":"bytes32"},{"name":"account","type":"address","internalType":"address"}],"outputs":[],"stateMutability":"nonpayable"},{"type":"function","name":"setBuybackParams","inputs":[{"name":"_minimumAmount","type":"uint256","internalType":"uint256"},{"name":"_maximumAmount","type":"uint256","internalType":"uint256"},{"name":"_discountRate","type":"uint256","internalType":"uint256"},{"name":"_cooldownPeriod","type":"uint256","internalType":"uint256"}],"outputs":[],"stateMutability":"nonpayable"},{"type":"function","name":"setReinvestmentRate","inputs":[{"name":"newRate","type":"uint256","internalType":"uint256"}],"outputs":[],"stateMutability":"nonpayable"},{"type":"function","name":"supportsInterface","inputs":[{"name":"interfaceId","type":"bytes4","internalType":"bytes4"}],"outputs":[{"name":"","type":"bool","internalType":"bool"}],"stateMutability":"view"},{"type":"event","name":"BuybackExecuted","inputs":[{"name":"holder","type":"address","indexed":true,"internalType":"address"},{"name":"bondAmount","type":"uint256","indexed":false,"internalType":"uint256"},{"name":"ethAmount","type":"uint256","indexed":false,"internalType":"uint256"},{"name":"discountApplied","type":"uint256","indexed":false,"internalType":"uint256"}],"anonymous":false},{"type":"event","name":"BuybackParamsUpdated","inputs":[{"name":"minimumAmount","type":"uint256","indexed":false,"internalType":"uint256"},{"name":"maximumAmount","type":"uint256","indexed":false,"internalType":"uint256"},{"name":"discountRate","type":"uint256","indexed":false,"internalType":"uint256"},{"name":"cooldownPeriod","type":"uint256","indexed":false,"internalType":"uint256"}],"anonymous":false},{"type":"event","name":"EmergencyWithdrawal","inputs":[{"name":"admin","type":"address","indexed":true,"internalType":"address"},{"name":"amount","type":"uint256","indexed":false,"internalType":"uint256"}],"anonymous":false},{"type":"event","name":"Paused","inputs":[{"name":"account","type":"address","indexed":false,"internalType":"address"}],"anonymous":false},{"type":"event","name":"ReinvestmentFailed","inputs":[{"name":"reason","type":"string","indexed":false,"internalType":"string"},{"name":"amount","type":"uint256","indexed":false,"internalType":"uint256"}],"anonymous":false},{"type":"event","name":"ReinvestmentRateUpdated","inputs":[{"name":"oldRate","type":"uint256","indexed":false,"internalType":"uint256"},{"name":"newRate","type":"uint256","indexed":false,"internalType":"uint256"}],"anonymous":false},{"type":"event","name":"RoleAdminChanged","inputs":[{"name":"role","type":"bytes32","indexed":true,"internalType":"bytes32"},{"name":"previousAdminRole","type":"bytes32","indexed":true,"internalType":"bytes32"},{"name":"newAdminRole","type":"bytes32","indexed":true,"internalType":"bytes32"}],"anonymous":false},{"type":"event","name":"RoleGranted","inputs":[{"name":"role","type":"bytes32","indexed":true,"internalType":"bytes32"},{"name":"account","type":"address","indexed":true,"internalType":"address"},{"name":"sender","type":"address","indexed":true,"internalType":"address"}],"anonymous":false},{"type":"event","name":"RoleRevoked","inputs":[{"name":"role","type":"bytes32","indexed":true,"internalType":"bytes32"},{"name":"account","type":"address","indexed":true,"internalType":"address"},{"name":"sender","type":"address","indexed":true,"internalType":"address"}],"anonymous":false},{"type":"event","name":"Unpaused","inputs":[{"name":"account","type":"address","indexed":false,"internalType":"address"}],"anonymous":false},{"type":"event","name":"YieldReinvested","inputs":[{"name":"amount","type":"uint256","indexed":false,"internalType":"uint256"},{"name":"timestamp","type":"uint256","indexed":false,"internalType":"uint256"},{"name":"newTotalReinvested","type":"uint256","indexed":false,"internalType":"uint256"}],"anonymous":false},{"type":"error","name":"AccessControlBadConfirmation","inputs":[]},{"type":"error","name":"AccessControlUnauthorizedAccount","inputs":[{"name":"account","type":"address","internalType":"address"},{"name":"neededRole","type":"bytes32","internalType":"bytes32"}]},{"type":"error","name":"EnforcedPause","inputs":[]},{"type":"error","name":"ExpectedPause","inputs":[]},{"type":"error","name":"ReentrancyGuardReentrantCall","inputs":[]}],"bytecode":{"object":"0x608060405234801562000010575f80fd5b50604051620016d7380380620016d78339810160408190526200003391620001bc565b60015f908155600280546001600160a81b0319166101006001600160a01b0385160217905562000064903362000128565b50620000917f241ecf16d79d0f8dbfb92cbc07fe17840425976cf0667f022fe9877caa831b083362000128565b50506040805160a0810182525f808252610bb8602080840182905242848601819052606080860185905260809586018590526003859055600493909355600555600683905560079290925583519283018452670de0b6b3a764000080845268056bc75e2d631000009284018390526101f494840185905262278d0093909101839052600855600955600a91909155600b55620001eb565b5f8281526001602090815260408083206001600160a01b038516845290915281205460ff16620001b3575f8381526001602081815260408084206001600160a01b0387168086529252808420805460ff19169093179092559051339286917f2f8788117e7eff1d82e926ec794901d17c78024a50270940304540a733656f0d9190a4506001620001b6565b505f5b92915050565b5f60208284031215620001cd575f80fd5b81516001600160a01b0381168114620001e4575f80fd5b9392505050565b6114de80620001f95f395ff3fe608060405260043610610134575f3560e01c80635c975abb116100a8578063b8cb28ad1161006d578063b8cb28ad1461039a578063c28f4392146103bc578063d547741f146103f8578063db2e21bc14610417578063db3baa751461042b578063ec87621c14610456575f80fd5b80635c975abb14610313578063831065081461032a5780638d404f341461034957806391d1485414610368578063a217fddf14610387575f80fd5b806336568abe116100f957806336568abe1461024a57806340d05e7d1461026957806343d0568f146102885780634606079f146102a757806348538e37146102c6578063542c7577146102ff575f80fd5b806301ffc9a71461013f57806316f0115b14610173578063248a9ca3146101c157806328e53bfa146101fe5780632f2ff15d14610229575f80fd5b3661013b57005b5f80fd5b34801561014a575f80fd5b5061015e6101593660046111c2565b610476565b60405190151581526020015b60405180910390f35b34801561017e575f80fd5b50600354600454600554600654600754610199949392919085565b604080519586526020860194909452928401919091526060830152608082015260a00161016a565b3480156101cc575f80fd5b506101f06101db3660046111e9565b5f908152600160208190526040909120015490565b60405190815260200161016a565b348015610209575f80fd5b506101f061021836600461121b565b600c6020525f908152604090205481565b348015610234575f80fd5b50610248610243366004611234565b6104ac565b005b348015610255575f80fd5b50610248610264366004611234565b6104d7565b348015610274575f80fd5b506101f06102833660046111e9565b61050f565b348015610293575f80fd5b506102486102a23660046111e9565b610542565b3480156102b2575f80fd5b506102486102c136600461125e565b6105a7565b3480156102d1575f80fd5b506006546007546003546004545b60408051948552602085019390935291830152606082015260800161016a565b34801561030a575f80fd5b50610248610765565b34801561031e575f80fd5b5060025460ff1661015e565b348015610335575f80fd5b506102486103443660046111e9565b610961565b348015610354575f80fd5b5061024861036336600461128d565b610a1e565b348015610373575f80fd5b5061015e610382366004611234565b610f55565b348015610392575f80fd5b506101f05f81565b3480156103a5575f80fd5b50600854600954600a54600b546102df9392919084565b3480156103c7575f80fd5b506002546103e09061010090046001600160a01b031681565b6040516001600160a01b03909116815260200161016a565b348015610403575f80fd5b50610248610412366004611234565b610f7f565b348015610422575f80fd5b50610248610fa4565b348015610436575f80fd5b506101f061044536600461121b565b600d6020525f908152604090205481565b348015610461575f80fd5b506101f05f8051602061148983398151915281565b5f6001600160e01b03198216637965db0b60e01b14806104a657506301ffc9a760e01b6001600160e01b03198316145b92915050565b5f82815260016020819052604090912001546104c781611073565b6104d18383611080565b50505050565b6001600160a01b03811633146105005760405163334bd91960e11b815260040160405180910390fd5b61050a82826110f6565b505050565b5f806127106008600201548461052591906112c9565b61052f91906112e0565b905061053b81846112ff565b9392505050565b33301461058c5760405162461bcd60e51b81526020600482015260136024820152724f6e6c7920696e7465726e616c2063616c6c7360681b60448201526064015b60405180910390fd5b8060035f015f82825461059f9190611312565b909155505050565b5f805160206114898339815191526105be81611073565b5f85116106065760405162461bcd60e51b8152602060048201526016602482015275125b9d985b1a59081b5a5b9a5b5d5b48185b5bdd5b9d60521b6044820152606401610583565b8484101561064f5760405162461bcd60e51b8152602060048201526016602482015275125b9d985b1a59081b585e1a5b5d5b48185b5bdd5b9d60521b6044820152606401610583565b6107d08311156106955760405162461bcd60e51b8152602060048201526011602482015270088d2e6c6deeadce840e8dede40d0d2ced607b1b6044820152606401610583565b5f82116106e45760405162461bcd60e51b815260206004820152601760248201527f496e76616c696420636f6f6c646f776e20706572696f640000000000000000006044820152606401610583565b60408051608080820183528782526020808301889052828401879052606092830186905260088990556009889055600a879055600b86905583518981529081018890529283018690529082018490527fe84878c11c51db18cb72d660ed05bcc089937dc4c203e42642544161b32de7c1910160405180910390a15050505050565b61076d611161565b5f8051602061148983398151915261078481611073565b47806107c95760405162461bcd60e51b8152602060048201526014602482015273139bc8199d5b991cc81d1bc81c995a5b9d995cdd60621b6044820152606401610583565b6004545f90612710906107dc90846112c9565b6107e691906112e0565b90505f81116108375760405162461bcd60e51b815260206004820152601d60248201527f5265696e766573746d656e7420616d6f756e7420746f6f20736d616c6c0000006044820152606401610583565b6040516343d0568f60e01b81526004810182905230906343d0568f906024015f604051808303815f87803b15801561086d575f80fd5b505af192505050801561087e575060015b6108f25761088a611325565b806308c379a0036108e8575061089e611377565b806108a957506108ea565b7ff3b55de102de3b71deec579dfc7f3e2a997c088781f3697f0f589e2008d02b8e81836040516108da929190611400565b60405180910390a150610953565b505b3d5f803e3d5ffd5b80600380015f8282546109059190611312565b90915550504260058190556006546040805184815260208101939093528201527ff08c1404194454c9a78c475504dbf62c9f2b7b9b2f7c3673d30ecfca7e648a239060600160405180910390a15b50505061095f60015f55565b565b5f8051602061148983398151915261097881611073565b6107d0821015801561098c57506113888211155b6109d85760405162461bcd60e51b815260206004820152601b60248201527f52617465206d757374206265206265747765656e2032302d35302500000000006044820152606401610583565b600480549083905560408051828152602081018590527f429f2c2de8bc2ceeaac5b32f0e8e5d5c65c0341acfac987bcf2879872ff911ee910160405180910390a1505050565b610a26611161565b5f80516020611489833981519152610a3d81611073565b600854821015610a865760405162461bcd60e51b8152602060048201526014602482015273416d6f756e742062656c6f77206d696e696d756d60601b6044820152606401610583565b600954821115610acf5760405162461bcd60e51b8152602060048201526014602482015273416d6f756e742061626f7665206d6178696d756d60601b6044820152606401610583565b600b546001600160a01b0384165f908152600c6020526040902054610af49190611312565b421015610b435760405162461bcd60e51b815260206004820152601b60248201527f436f6f6c646f776e20706572696f64206e6f7420656c617073656400000000006044820152606401610583565b6002546040516370a0823160e01b81526001600160a01b0385811660048301528492610100900416906370a0823190602401602060405180830381865afa158015610b90573d5f803e3d5ffd5b505050506040513d601f19601f82011682018060405250810190610bb49190611452565b1015610bf75760405162461bcd60e51b8152602060048201526012602482015271496e73756666696369656e7420626f6e647360701b6044820152606401610583565b600354821115610c495760405162461bcd60e51b815260206004820152601760248201527f496e73756666696369656e7420706f6f6c2066756e64730000000000000000006044820152606401610583565b5f610c538361050f565b600354909150811115610ca85760405162461bcd60e51b815260206004820152601e60248201527f496e73756666696369656e742066756e647320666f72206275796261636b00006044820152606401610583565b6001600160a01b0384165f908152600c60209081526040808320429055600d90915281208054859290610cdc908490611312565b9091555050600380548291905f90610cf59084906112ff565b9091555050600780548491905f90610d0e908490611312565b90915550506002546040516323b872dd60e01b81526001600160a01b03868116600483015230602483015260448201869052610100909204909116906323b872dd906064016020604051808303815f875af1158015610d6f573d5f803e3d5ffd5b505050506040513d601f19601f82011682018060405250810190610d939190611469565b610dd65760405162461bcd60e51b8152602060048201526014602482015273109bdb99081d1c985b9cd9995c8819985a5b195960621b6044820152606401610583565b6002546040516358e6910d60e11b81523060048201526024810185905260606044820152601060648201526f213abcb130b1b59030b73210313ab93760811b60848201526101009091046001600160a01b03169063b1cd221a9060a4015f604051808303815f87803b158015610e4a575f80fd5b505af1158015610e5c573d5f803e3d5ffd5b505050505f846001600160a01b0316826040515f6040518083038185875af1925050503d805f8114610ea9576040519150601f19603f3d011682016040523d82523d5f602084013e610eae565b606091505b5050905080610ef55760405162461bcd60e51b8152602060048201526013602482015272115512081d1c985b9cd9995c8819985a5b1959606a1b6044820152606401610583565b600a546040805186815260208101859052908101919091526001600160a01b038616907fee2c9a90e3b8a244b5834a6124b85d3779cae4874b08aed4489c60a2f19ba3d29060600160405180910390a2505050610f5160015f55565b5050565b5f9182526001602090815260408084206001600160a01b0393909316845291905290205460ff1690565b5f8281526001602081905260409091200154610f9a81611073565b6104d183836110f6565b5f610fae81611073565b60405147905f90339083908381818185875af1925050503d805f8114610fef576040519150601f19603f3d011682016040523d82523d5f602084013e610ff4565b606091505b50509050806110395760405162461bcd60e51b815260206004820152601160248201527015da5d1a191c985dd85b0819985a5b1959607a1b6044820152606401610583565b60405182815233907f23d6711a1d031134a36921253c75aa59e967d38e369ac625992824315e204f209060200160405180910390a2505050565b61107d8133611189565b50565b5f61108b8383610f55565b6110ef575f8381526001602081815260408084206001600160a01b0387168086529252808420805460ff19169093179092559051339286917f2f8788117e7eff1d82e926ec794901d17c78024a50270940304540a733656f0d9190a45060016104a6565b505f6104a6565b5f6111018383610f55565b156110ef575f8381526001602090815260408083206001600160a01b0386168085529252808320805460ff1916905551339286917ff6391f5c32d9c69d2a47ea670b442974b53935d1edc7fd64eb21e047a839171b9190a45060016104a6565b60025f540361118357604051633ee5aeb560e01b815260040160405180910390fd5b60025f55565b6111938282610f55565b610f515760405163e2517d3f60e01b81526001600160a01b038216600482015260248101839052604401610583565b5f602082840312156111d2575f80fd5b81356001600160e01b03198116811461053b575f80fd5b5f602082840312156111f9575f80fd5b5035919050565b80356001600160a01b0381168114611216575f80fd5b919050565b5f6020828403121561122b575f80fd5b61053b82611200565b5f8060408385031215611245575f80fd5b8235915061125560208401611200565b90509250929050565b5f805f8060808587031215611271575f80fd5b5050823594602084013594506040840135936060013592509050565b5f806040838503121561129e575f80fd5b6112a783611200565b946020939093013593505050565b634e487b7160e01b5f52601160045260245ffd5b80820281158282048414176104a6576104a66112b5565b5f826112fa57634e487b7160e01b5f52601260045260245ffd5b500490565b818103818111156104a6576104a66112b5565b808201808211156104a6576104a66112b5565b5f60033d111561133b5760045f803e505f5160e01c5b90565b601f8201601f1916810167ffffffffffffffff8111828210171561137057634e487b7160e01b5f52604160045260245ffd5b6040525050565b5f60443d10156113845790565b6040516003193d81016004833e81513d67ffffffffffffffff81602484011181841117156113b457505050505090565b82850191508151818111156113cc5750505050505090565b843d87010160208285010111156113e65750505050505090565b6113f56020828601018761133e565b509095945050505050565b604081525f83518060408401525f5b8181101561142c576020818701810151606086840101520161140f565b505f606082850101526060601f19601f8301168401019150508260208301529392505050565b5f60208284031215611462575f80fd5b5051919050565b5f60208284031215611479575f80fd5b8151801515811461053b575f80fdfe241ecf16d79d0f8dbfb92cbc07fe17840425976cf0667f022fe9877caa831b08a264697066735822122015bb3a713ef1c6e81237f23bd7cc34f86f39e9c6bdf64898098b57830bdd428564736f6c63430008140033","linkReferences":{}},"methodIdentifiers":{"DEFAULT_ADMIN_ROLE()":"a217fddf","MANAGER_ROLE()":"ec87621c","bondToken()":"c28f4392","buybackParams()":"b8cb28ad","calculateBuybackPrice(uint256)":"40d05e7d","emergencyWithdraw()":"db2e21bc","executeBuyback(address,uint256)":"8d404f34","executeReinvestment(uint256)":"43d0568f","getReinvestmentStats()":"48538e37","getRoleAdmin(bytes32)":"248a9ca3","grantRole(bytes32,address)":"2f2ff15d","hasRole(bytes32,address)":"91d14854","holderBuybacks(address)":"db3baa75","lastBuybackTime(address)":"28e53bfa","paused()":"5c975abb","pool()":"16f0115b","reinvestYield()":"542c7577","renounceRole(bytes32,address)":"36568abe","revokeRole(bytes32,address)":"d547741f","setBuybackParams(uint256,uint256,uint256,uint256)":"4606079f","setReinvestmentRate(uint256)":"83106508","supportsInterface(bytes4)":"01ffc9a7"},"id":2}